{
  "_format": "hh3-artifact-1",
  "contractName": "RoninRivals",
  "sourceName": "contracts/RoninRivals.sol",
  "abi": [
    {
      "inputs": [],
      "stateMutability": "payable",
      "type": "constructor"
    },
    {
      "anonymous": false,
      "inputs": [
        {
          "indexed": true,
          "internalType": "uint256",
          "name": "battleId",
          "type": "uint256"
        },
        {
          "indexed": false,
          "internalType": "address",
          "name": "winner",
          "type": "address"
        },
        {
          "indexed": false,
          "internalType": "address",
          "name": "loser",
          "type": "address"
        },
        {
          "indexed": false,
          "internalType": "uint256",
          "name": "reward",
          "type": "uint256"
        }
      ],
      "name": "BattleEnded",
      "type": "event"
    },
    {
      "anonymous": false,
      "inputs": [
        {
          "indexed": true,
          "internalType": "uint256",
          "name": "battleId",
          "type": "uint256"
        },
        {
          "indexed": false,
          "internalType": "address",
          "name": "player1",
          "type": "address"
        },
        {
          "indexed": false,
          "internalType": "address",
          "name": "player2",
          "type": "address"
        },
        {
          "indexed": false,
          "internalType": "uint256",
          "name": "bet",
          "type": "uint256"
        }
      ],
      "name": "BattleStarted",
      "type": "event"
    },
    {
      "anonymous": false,
      "inputs": [
        {
          "indexed": true,
          "internalType": "uint256",
          "name": "battleId",
          "type": "uint256"
        },
        {
          "indexed": false,
          "internalType": "address",
          "name": "player",
          "type": "address"
        },
        {
          "indexed": false,
          "internalType": "uint256",
          "name": "damage",
          "type": "uint256"
        },
        {
          "indexed": false,
          "internalType": "uint256",
          "name": "remainingHealth",
          "type": "uint256"
        }
      ],
      "name": "BattleTurn",
      "type": "event"
    },
    {
      "anonymous": false,
      "inputs": [
        {
          "indexed": true,
          "internalType": "address",
          "name": "player",
          "type": "address"
        },
        {
          "indexed": false,
          "internalType": "string",
          "name": "name",
          "type": "string"
        }
      ],
      "name": "SamuraiCreated",
      "type": "event"
    },
    {
      "anonymous": false,
      "inputs": [
        {
          "indexed": true,
          "internalType": "address",
          "name": "player",
          "type": "address"
        },
        {
          "indexed": false,
          "internalType": "string",
          "name": "stat",
          "type": "string"
        },
        {
          "indexed": false,
          "internalType": "uint256",
          "name": "newValue",
          "type": "uint256"
        }
      ],
      "name": "SkillUpgraded",
      "type": "event"
    },
    {
      "inputs": [],
      "name": "MAXIMUM_BET",
      "outputs": [
        {
          "internalType": "uint256",
          "name": "",
          "type": "uint256"
        }
      ],
      "stateMutability": "view",
      "type": "function"
    },
    {
      "inputs": [],
      "name": "MINIMUM_BET",
      "outputs": [
        {
          "internalType": "uint256",
          "name": "",
          "type": "uint256"
        }
      ],
      "stateMutability": "view",
      "type": "function"
    },
    {
      "inputs": [],
      "name": "SKILL_POINTS_PER_LEVEL",
      "outputs": [
        {
          "internalType": "uint256",
          "name": "",
          "type": "uint256"
        }
      ],
      "stateMutability": "view",
      "type": "function"
    },
    {
      "inputs": [],
      "name": "XP_PER_LEVEL",
      "outputs": [
        {
          "internalType": "uint256",
          "name": "",
          "type": "uint256"
        }
      ],
      "stateMutability": "view",
      "type": "function"
    },
    {
      "inputs": [],
      "name": "battleIdCounter",
      "outputs": [
        {
          "internalType": "uint256",
          "name": "",
          "type": "uint256"
        }
      ],
      "stateMutability": "view",
      "type": "function"
    },
    {
      "inputs": [
        {
          "internalType": "uint256",
          "name": "",
          "type": "uint256"
        }
      ],
      "name": "battles",
      "outputs": [
        {
          "internalType": "address",
          "name": "player1",
          "type": "address"
        },
        {
          "internalType": "address",
          "name": "player2",
          "type": "address"
        },
        {
          "internalType": "uint256",
          "name": "bet",
          "type": "uint256"
        },
        {
          "internalType": "uint256",
          "name": "player1Health",
          "type": "uint256"
        },
        {
          "internalType": "uint256",
          "name": "player2Health",
          "type": "uint256"
        },
        {
          "internalType": "bool",
          "name": "isActive",
          "type": "bool"
        },
        {
          "internalType": "address",
          "name": "currentTurn",
          "type": "address"
        },
        {
          "internalType": "uint256",
          "name": "turnCount",
          "type": "uint256"
        }
      ],
      "stateMutability": "view",
      "type": "function"
    },
    {
      "inputs": [
        {
          "internalType": "string",
          "name": "_name",
          "type": "string"
        }
      ],
      "name": "createSamurai",
      "outputs": [],
      "stateMutability": "nonpayable",
      "type": "function"
    },
    {
      "inputs": [
        {
          "internalType": "uint256",
          "name": "_battleId",
          "type": "uint256"
        }
      ],
      "name": "executeTurn",
      "outputs": [],
      "stateMutability": "nonpayable",
      "type": "function"
    },
    {
      "inputs": [
        {
          "internalType": "uint256",
          "name": "_battleId",
          "type": "uint256"
        }
      ],
      "name": "getBattle",
      "outputs": [
        {
          "components": [
            {
              "internalType": "address",
              "name": "player1",
              "type": "address"
            },
            {
              "internalType": "address",
              "name": "player2",
              "type": "address"
            },
            {
              "internalType": "uint256",
              "name": "bet",
              "type": "uint256"
            },
            {
              "internalType": "uint256",
              "name": "player1Health",
              "type": "uint256"
            },
            {
              "internalType": "uint256",
              "name": "player2Health",
              "type": "uint256"
            },
            {
              "internalType": "bool",
              "name": "isActive",
              "type": "bool"
            },
            {
              "internalType": "address",
              "name": "currentTurn",
              "type": "address"
            },
            {
              "internalType": "uint256",
              "name": "turnCount",
              "type": "uint256"
            }
          ],
          "internalType": "struct RoninRivals.Battle",
          "name": "",
          "type": "tuple"
        }
      ],
      "stateMutability": "view",
      "type": "function"
    },
    {
      "inputs": [
        {
          "internalType": "address",
          "name": "_player",
          "type": "address"
        }
      ],
      "name": "getSamurai",
      "outputs": [
        {
          "components": [
            {
              "internalType": "string",
              "name": "name",
              "type": "string"
            },
            {
              "internalType": "uint256",
              "name": "level",
              "type": "uint256"
            },
            {
              "internalType": "uint256",
              "name": "experience",
              "type": "uint256"
            },
            {
              "internalType": "uint256",
              "name": "skillPoints",
              "type": "uint256"
            },
            {
              "internalType": "uint256",
              "name": "strength",
              "type": "uint256"
            },
            {
              "internalType": "uint256",
              "name": "defense",
              "type": "uint256"
            },
            {
              "internalType": "uint256",
              "name": "speed",
              "type": "uint256"
            },
            {
              "internalType": "uint256",
              "name": "health",
              "type": "uint256"
            },
            {
              "internalType": "uint256",
              "name": "battlesWon",
              "type": "uint256"
            },
            {
              "internalType": "uint256",
              "name": "battlesLost",
              "type": "uint256"
            },
            {
              "internalType": "bool",
              "name": "exists",
              "type": "bool"
            }
          ],
          "internalType": "struct RoninRivals.Samurai",
          "name": "",
          "type": "tuple"
        }
      ],
      "stateMutability": "view",
      "type": "function"
    },
    {
      "inputs": [
        {
          "internalType": "address",
          "name": "",
          "type": "address"
        }
      ],
      "name": "samurais",
      "outputs": [
        {
          "internalType": "string",
          "name": "name",
          "type": "string"
        },
        {
          "internalType": "uint256",
          "name": "level",
          "type": "uint256"
        },
        {
          "internalType": "uint256",
          "name": "experience",
          "type": "uint256"
        },
        {
          "internalType": "uint256",
          "name": "skillPoints",
          "type": "uint256"
        },
        {
          "internalType": "uint256",
          "name": "strength",
          "type": "uint256"
        },
        {
          "internalType": "uint256",
          "name": "defense",
          "type": "uint256"
        },
        {
          "internalType": "uint256",
          "name": "speed",
          "type": "uint256"
        },
        {
          "internalType": "uint256",
          "name": "health",
          "type": "uint256"
        },
        {
          "internalType": "uint256",
          "name": "battlesWon",
          "type": "uint256"
        },
        {
          "internalType": "uint256",
          "name": "battlesLost",
          "type": "uint256"
        },
        {
          "internalType": "bool",
          "name": "exists",
          "type": "bool"
        }
      ],
      "stateMutability": "view",
      "type": "function"
    },
    {
      "inputs": [
        {
          "internalType": "address",
          "name": "_opponent",
          "type": "address"
        }
      ],
      "name": "startBattle",
      "outputs": [],
      "stateMutability": "payable",
      "type": "function"
    },
    {
      "inputs": [
        {
          "internalType": "uint8",
          "name": "_stat",
          "type": "uint8"
        }
      ],
      "name": "upgradeStat",
      "outputs": [],
      "stateMutability": "nonpayable",
      "type": "function"
    },
    {
      "inputs": [],
      "name": "withdraw",
      "outputs": [],
      "stateMutability": "nonpayable",
      "type": "function"
    },
    {
      "stateMutability": "payable",
      "type": "receive"
    }
  ],
  "bytecode": "0x6080604052600380546001600160a01b03191633179055611a20806100235f395ff3fe6080604052600436106100dc575f3560e01c80637b1b06461161007c578063a13eb44d11610057578063a13eb44d146103f8578063a23ec81d14610417578063ecdd292a14610436578063fe3edcd114610449575f5ffd5b80637b1b0646146103af5780637c7036c1146103c3578063935aae40146103de575f5ffd5b80634fcceee3116100b75780634fcceee31461016857806357e333d214610187578063606d2e96146101a95780636dd0ce7a14610267575f5ffd5b806308e4f9f7146100e757806338ca43d0146101265780633ccfd60b14610152575f5ffd5b366100e357005b5f5ffd5b3480156100f2575f5ffd5b5061010661010136600461156c565b61045e565b60405161011d9b9a999897969594939291906115c7565b60405180910390f35b348015610131575f5ffd5b5061014561014036600461156c565b61053d565b60405161011d919061162b565b34801561015d575f5ffd5b506101666106b7565b005b348015610173575f5ffd5b506101666101823660046116c6565b6107a4565b348015610192575f5ffd5b5061019b600381565b60405190815260200161011d565b3480156101b4575f5ffd5b506102186101c33660046116c6565b600160208190525f918252604090912080549181015460028201546003830154600484015460058501546006909501546001600160a01b03968716969485169593949293919260ff8316926101009004169088565b604080516001600160a01b03998a168152978916602089015287019590955260608601939093526080850191909152151560a084015290921660c082015260e08101919091526101000161011d565b348015610272575f5ffd5b506103416102813660046116c6565b60408051610100810182525f80825260208201819052918101829052606081018290526080810182905260a0810182905260c0810182905260e0810191909152505f908152600160208181526040928390208351610100808201865282546001600160a01b039081168352948301548516938201939093526002820154948101949094526003810154606085015260048101546080850152600581015460ff8116151560a08601529190910490911660c08301526006015460e082015290565b60405161011d919081516001600160a01b03908116825260208084015182169083015260408084015190830152606080840151908301526080808401519083015260a08084015115159083015260c0808401519091169082015260e091820151918101919091526101000190565b3480156103ba575f5ffd5b5061019b606481565b3480156103ce575f5ffd5b5061019b670de0b6b3a764000081565b3480156103e9575f5ffd5b5061019b662386f26fc1000081565b348015610403575f5ffd5b506101666104123660046116dd565b610a15565b348015610422575f5ffd5b50610166610431366004611711565b610ce2565b61016661044436600461156c565b610eab565b348015610454575f5ffd5b5061019b60025481565b5f60208190529081526040902080548190610478906117c4565b80601f01602080910402602001604051908101604052809291908181526020018280546104a4906117c4565b80156104ef5780601f106104c6576101008083540402835291602001916104ef565b820191905f5260205f20905b8154815290600101906020018083116104d257829003601f168201915b50505060018401546002850154600386015460048701546005880154600689015460078a015460088b015460098c0154600a909c01549a9b979a969950949750929591949093919060ff168b565b610592604051806101600160405280606081526020015f81526020015f81526020015f81526020015f81526020015f81526020015f81526020015f81526020015f81526020015f81526020015f151581525090565b6001600160a01b0382165f9081526020819052604090819020815161016081019092528054829082906105c4906117c4565b80601f01602080910402602001604051908101604052809291908181526020018280546105f0906117c4565b801561063b5780601f106106125761010080835404028352916020019161063b565b820191905f5260205f20905b81548152906001019060200180831161061e57829003601f168201915b505050918352505060018201546020820152600282015460408201526003820154606082015260048201546080820152600582015460a0820152600682015460c0820152600782015460e082015260088201546101008201526009820154610120820152600a9091015460ff1615156101409091015292915050565b6003546001600160a01b031633146107245760405162461bcd60e51b815260206004820152602560248201527f4f6e6c7920746865206f776e65722063616e2063616c6c20746869732066756e60448201526431ba34b7b760d91b60648201526084015b60405180910390fd5b47806107695760405162461bcd60e51b81526020600482015260146024820152734e6f2066756e647320746f20776974686472617760601b604482015260640161071b565b6003546040516001600160a01b039091169082156108fc029083905f818181858888f193505050501580156107a0573d5f5f3e3d5ffd5b5050565b5f818152600160205260409020600581015460ff166107fc5760405162461bcd60e51b8152602060048201526014602482015273426174746c65206973206e6f742061637469766560601b604482015260640161071b565b600581015461010090046001600160a01b0316331461084d5760405162461bcd60e51b815260206004820152600d60248201526c2737ba103cb7bab9103a3ab93760991b604482015260640161071b565b805433905f906001600160a01b031682146108725782546001600160a01b0316610881565b60018301546001600160a01b03165b90505f61088e838361126a565b84549091506001600160a01b03908116908416036108d157808460040154116108b7575f6108c7565b8084600401546108c79190611810565b60048501556108f8565b808460030154116108e2575f6108f2565b8084600301546108f29190611810565b60038501555b600684018054905f61090983611823565b9091555050835485907f32f21e78f1b9253d6b5647e7be62d64cdae398bb6b05c2767207f35a79f76ce090859084906001600160a01b0380841691161461095457876003015461095a565b87600401545b604080516001600160a01b03909416845260208401929092529082015260600160405180910390a26003840154158061099557506004840154155b156109a8576109a385611336565b610a0e565b8354600585015461010090046001600160a01b039081169116146109d65783546001600160a01b03166109e5565b60018401546001600160a01b03165b8460050160016101000a8154816001600160a01b0302191690836001600160a01b031602179055505b5050505050565b335f908152602081905260409020600a015460ff16610a765760405162461bcd60e51b815260206004820152601f60248201527f596f75206d7573742063726561746520612053616d7572616920666972737400604482015260640161071b565b335f9081526020819052604090206003810154610ad55760405162461bcd60e51b815260206004820152601960248201527f4e6f20736b696c6c20706f696e747320617661696c61626c6500000000000000604482015260640161071b565b60048260ff1610610b175760405162461bcd60e51b815260206004820152600c60248201526b125b9d985b1a59081cdd185d60a21b604482015260640161071b565b600381018054905f610b288361183b565b91905055508160ff165f03610ba4576002816004015f828254610b4b9190611850565b9091555050600481015460405133915f5160206119cb5f395f51905f5291610b9891906040808252600890820152670e6e8e4cadccee8d60c31b6060820152602081019190915260800190565b60405180910390a25050565b8160ff16600103610c0f576001816005015f828254610bc39190611850565b9091555050600581015460405133915f5160206119cb5f395f51905f5291610b989190604080825260079082015266646566656e736560c81b6060820152602081019190915260800190565b8160ff16600203610c78576001816006015f828254610c2e9190611850565b9091555050600681015460405133915f5160206119cb5f395f51905f5291610b9891906040808252600590820152641cdc19595960da1b6060820152602081019190915260800190565b8160ff166003036107a057600a816007015f828254610c979190611850565b9091555050600781015460405133915f5160206119cb5f395f51905f5291610b9891906040808252600690820152650d0cac2d8e8d60d31b6060820152602081019190915260800190565b335f908152602081905260409020600a015460ff1615610d3d5760405162461bcd60e51b815260206004820152601660248201527553616d7572616920616c72656164792065786973747360501b604482015260640161071b565b5f815111610d845760405162461bcd60e51b81526020600482015260146024820152734e616d652063616e6e6f7420626520656d70747960601b604482015260640161071b565b6040805161016081018252828152600160208083018290525f83850181905260608401819052600a6080850152600560a0850152600860c0850152606460e0850152610100840181905261012084018190526101408401929092523382528190529190912081518190610df790826118ac565b50602082015160018201556040808301516002830155606083015160038301556080830151600483015560a0830151600583015560c0830151600683015560e083015160078301556101008301516008830155610120830151600983015561014090920151600a909101805460ff19169115159190911790555133907f56729a04a7b9fbacffc8b4865b7082c4bce0e09aaccb84a25c126f3b3974411390610ea0908490611967565b60405180910390a250565b335f908152602081905260409020600a015460ff16610f0c5760405162461bcd60e51b815260206004820152601f60248201527f596f75206d7573742063726561746520612053616d7572616920666972737400604482015260640161071b565b336001600160a01b03821603610f5d5760405162461bcd60e51b815260206004820152601660248201527521b0b73737ba103130ba3a3632903cb7bab939b2b63360511b604482015260640161071b565b6001600160a01b0381165f908152602081905260409020600a015460ff16610fc75760405162461bcd60e51b815260206004820152601c60248201527f4f70706f6e656e74206d757374206861766520612053616d7572616900000000604482015260640161071b565b662386f26fc100003410158015610fe65750670de0b6b3a76400003411155b6110275760405162461bcd60e51b8152602060048201526012602482015271125b9d985b1a590818995d08185b5bdd5b9d60721b604482015260640161071b565b611032346002611979565b4710156110815760405162461bcd60e51b815260206004820152601960248201527f436f6e7472616374206e65656473206d6f72652066756e647300000000000000604482015260640161071b565b600280545f918261109183611823565b919050559050604051806101000160405280336001600160a01b03168152602001836001600160a01b031681526020013481526020015f5f336001600160a01b03166001600160a01b031681526020019081526020015f206007015481526020015f5f856001600160a01b03166001600160a01b031681526020019081526020015f20600701548152602001600115158152602001336001600160a01b031681526020015f81525060015f8381526020019081526020015f205f820151815f015f6101000a8154816001600160a01b0302191690836001600160a01b031602179055506020820151816001015f6101000a8154816001600160a01b0302191690836001600160a01b0316021790555060408201518160020155606082015181600301556080820151816004015560a0820151816005015f6101000a81548160ff02191690831515021790555060c08201518160050160016101000a8154816001600160a01b0302191690836001600160a01b0316021790555060e08201518160060155905050807f900c364010a1a09b8078f341f479d8d8af5ea85dc8d3c240972b3568e6b3ae99338434604051610b98939291906001600160a01b039384168152919092166020820152604081019190915260600190565b6001600160a01b038083165f908152602081905260408082209284168252812060048301546005820154929392848183116112a65760016112b0565b6112b08284611810565b90505f6015428a6040516020016112e392919091825260601b6bffffffffffffffffffffffff1916602082015260340190565b604051602081830303815290604052805190602001205f1c61130591906119a4565b905060646113138284611979565b61131d91906119b7565b6113279083611850565b96505050505050505b92915050565b5f81815260016020526040812060038101549091906113625760018201546001600160a01b031661136e565b81546001600160a01b03165b82549091505f906001600160a01b038084169116146113975782546001600160a01b03166113a6565b60018301546001600160a01b03165b6001600160a01b0383165f9081526020819052604081206008018054929350906113cf83611823565b90915550506001600160a01b0381165f9081526020819052604081206009018054916113fa83611823565b919050555061140a8260326114cb565b61141581600a6114cb565b816001600160a01b03166108fc846002015460026114339190611979565b6040518115909202915f818181858888f19350505050158015611458573d5f5f3e3d5ffd5b5060058301805460ff1916905560028084015485917f321fabd726c0c287fb5179fb76fd24c972f92727701c3b9fec3ec65c6f587ea2918591859161149c91611979565b604080516001600160a01b0394851681529390921660208401529082015260600160405180910390a250505050565b6001600160a01b0382165f908152602081905260408120600281018054919284926114f7908490611850565b909155505060018101545f9061150f90606490611979565b90508082600201541061156657600182018054905f61152d83611823565b91905055506003826003015f8282546115469190611850565b9250508190555080826002015f8282546115609190611810565b90915550505b50505050565b5f6020828403121561157c575f5ffd5b81356001600160a01b0381168114611592575f5ffd5b9392505050565b5f81518084528060208401602086015e5f602082860101526020601f19601f83011685010191505092915050565b61016081525f6115db61016083018e611599565b602083019c909c525060408101999099526060890197909752608088019590955260a087019390935260c086019190915260e0850152610100840152610120830152151561014090910152919050565b602081525f82516101606020840152611648610180840182611599565b9050602084015160408401526040840151606084015260608401516080840152608084015160a084015260a084015160c084015260c084015160e084015260e08401516101008401526101008401516101208401526101208401516101408401526101408401516116be61016085018215159052565b509392505050565b5f602082840312156116d6575f5ffd5b5035919050565b5f602082840312156116ed575f5ffd5b813560ff81168114611592575f5ffd5b634e487b7160e01b5f52604160045260245ffd5b5f60208284031215611721575f5ffd5b813567ffffffffffffffff811115611737575f5ffd5b8201601f81018413611747575f5ffd5b803567ffffffffffffffff811115611761576117616116fd565b604051601f8201601f19908116603f0116810167ffffffffffffffff81118282101715611790576117906116fd565b6040528181528282016020018610156117a7575f5ffd5b816020840160208301375f91810160200191909152949350505050565b600181811c908216806117d857607f821691505b6020821081036117f657634e487b7160e01b5f52602260045260245ffd5b50919050565b634e487b7160e01b5f52601160045260245ffd5b81810381811115611330576113306117fc565b5f60018201611834576118346117fc565b5060010190565b5f81611849576118496117fc565b505f190190565b80820180821115611330576113306117fc565b601f8211156118a757805f5260205f20601f840160051c810160208510156118885750805b601f840160051c820191505b81811015610a0e575f8155600101611894565b505050565b815167ffffffffffffffff8111156118c6576118c66116fd565b6118da816118d484546117c4565b84611863565b6020601f82116001811461190c575f83156118f55750848201515b5f19600385901b1c1916600184901b178455610a0e565b5f84815260208120601f198516915b8281101561193b578785015182556020948501946001909201910161191b565b508482101561195857868401515f19600387901b60f8161c191681555b50505050600190811b01905550565b602081525f6115926020830184611599565b8082028115828204841417611330576113306117fc565b634e487b7160e01b5f52601260045260245ffd5b5f826119b2576119b2611990565b500690565b5f826119c5576119c5611990565b50049056fe4e165d0b27d636a96a4a5ff5e73ac46b70b11f97afc47b9a079374fa40576a08a2646970667358221220cdc9348134c7387ff96bcf82140afe83d370fc00061ec1f51f162fc8a925faa464736f6c634300081c0033",
  "linkReferences": {},
  "deployedLinkReferences": {},
  "immutableReferences": {},
  "inputSourceName": "project/contracts/RoninRivals.sol",
  "buildInfoId": "63c14935a02453ae6347b3be01d66c5cb88ce0fd"
}