{
  "_format": "hh3-artifact-1",
  "contractName": "RoninRivals",
  "sourceName": "contracts/RoninRivals.sol",
  "abi": [
    {
      "inputs": [],
      "stateMutability": "payable",
      "type": "constructor"
    },
    {
      "anonymous": false,
      "inputs": [
        {
          "indexed": true,
          "internalType": "uint256",
          "name": "battleId",
          "type": "uint256"
        },
        {
          "indexed": false,
          "internalType": "address",
          "name": "opponent",
          "type": "address"
        }
      ],
      "name": "BattleAccepted",
      "type": "event"
    },
    {
      "anonymous": false,
      "inputs": [
        {
          "indexed": true,
          "internalType": "uint256",
          "name": "battleId",
          "type": "uint256"
        },
        {
          "indexed": false,
          "internalType": "address",
          "name": "challenger",
          "type": "address"
        },
        {
          "indexed": false,
          "internalType": "address",
          "name": "opponent",
          "type": "address"
        },
        {
          "indexed": false,
          "internalType": "uint256",
          "name": "bet",
          "type": "uint256"
        }
      ],
      "name": "BattleChallenged",
      "type": "event"
    },
    {
      "anonymous": false,
      "inputs": [
        {
          "indexed": true,
          "internalType": "uint256",
          "name": "battleId",
          "type": "uint256"
        },
        {
          "indexed": false,
          "internalType": "address",
          "name": "winner",
          "type": "address"
        },
        {
          "indexed": false,
          "internalType": "address",
          "name": "loser",
          "type": "address"
        },
        {
          "indexed": false,
          "internalType": "uint256",
          "name": "reward",
          "type": "uint256"
        }
      ],
      "name": "BattleEnded",
      "type": "event"
    },
    {
      "anonymous": false,
      "inputs": [
        {
          "indexed": true,
          "internalType": "uint256",
          "name": "battleId",
          "type": "uint256"
        },
        {
          "indexed": false,
          "internalType": "address",
          "name": "player",
          "type": "address"
        },
        {
          "indexed": false,
          "internalType": "uint256",
          "name": "damage",
          "type": "uint256"
        },
        {
          "indexed": false,
          "internalType": "uint256",
          "name": "remainingHealth",
          "type": "uint256"
        }
      ],
      "name": "BattleTurn",
      "type": "event"
    },
    {
      "anonymous": false,
      "inputs": [
        {
          "indexed": true,
          "internalType": "address",
          "name": "funder",
          "type": "address"
        },
        {
          "indexed": false,
          "internalType": "uint256",
          "name": "amount",
          "type": "uint256"
        }
      ],
      "name": "ContractFunded",
      "type": "event"
    },
    {
      "anonymous": false,
      "inputs": [
        {
          "indexed": true,
          "internalType": "uint256",
          "name": "battleId",
          "type": "uint256"
        },
        {
          "indexed": false,
          "internalType": "address",
          "name": "player",
          "type": "address"
        },
        {
          "indexed": false,
          "internalType": "uint256",
          "name": "damage",
          "type": "uint256"
        }
      ],
      "name": "CriticalHit",
      "type": "event"
    },
    {
      "anonymous": false,
      "inputs": [
        {
          "indexed": true,
          "internalType": "address",
          "name": "player",
          "type": "address"
        },
        {
          "indexed": false,
          "internalType": "string",
          "name": "name",
          "type": "string"
        }
      ],
      "name": "SamuraiCreated",
      "type": "event"
    },
    {
      "anonymous": false,
      "inputs": [
        {
          "indexed": true,
          "internalType": "address",
          "name": "player",
          "type": "address"
        },
        {
          "indexed": false,
          "internalType": "string",
          "name": "stat",
          "type": "string"
        },
        {
          "indexed": false,
          "internalType": "uint256",
          "name": "newValue",
          "type": "uint256"
        }
      ],
      "name": "SkillUpgraded",
      "type": "event"
    },
    {
      "inputs": [],
      "name": "MAXIMUM_BET",
      "outputs": [
        {
          "internalType": "uint256",
          "name": "",
          "type": "uint256"
        }
      ],
      "stateMutability": "view",
      "type": "function"
    },
    {
      "inputs": [],
      "name": "MINIMUM_BET",
      "outputs": [
        {
          "internalType": "uint256",
          "name": "",
          "type": "uint256"
        }
      ],
      "stateMutability": "view",
      "type": "function"
    },
    {
      "inputs": [],
      "name": "SKILL_POINTS_PER_LEVEL",
      "outputs": [
        {
          "internalType": "uint256",
          "name": "",
          "type": "uint256"
        }
      ],
      "stateMutability": "view",
      "type": "function"
    },
    {
      "inputs": [],
      "name": "XP_PER_LEVEL",
      "outputs": [
        {
          "internalType": "uint256",
          "name": "",
          "type": "uint256"
        }
      ],
      "stateMutability": "view",
      "type": "function"
    },
    {
      "inputs": [
        {
          "internalType": "uint256",
          "name": "_battleId",
          "type": "uint256"
        }
      ],
      "name": "acceptBattle",
      "outputs": [],
      "stateMutability": "payable",
      "type": "function"
    },
    {
      "inputs": [],
      "name": "battleIdCounter",
      "outputs": [
        {
          "internalType": "uint256",
          "name": "",
          "type": "uint256"
        }
      ],
      "stateMutability": "view",
      "type": "function"
    },
    {
      "inputs": [
        {
          "internalType": "uint256",
          "name": "",
          "type": "uint256"
        }
      ],
      "name": "battles",
      "outputs": [
        {
          "internalType": "address",
          "name": "challenger",
          "type": "address"
        },
        {
          "internalType": "address",
          "name": "opponent",
          "type": "address"
        },
        {
          "internalType": "uint256",
          "name": "bet",
          "type": "uint256"
        },
        {
          "internalType": "uint256",
          "name": "challengerHealth",
          "type": "uint256"
        },
        {
          "internalType": "uint256",
          "name": "opponentHealth",
          "type": "uint256"
        },
        {
          "internalType": "bool",
          "name": "isActive",
          "type": "bool"
        },
        {
          "internalType": "bool",
          "name": "isAccepted",
          "type": "bool"
        },
        {
          "internalType": "address",
          "name": "currentTurn",
          "type": "address"
        },
        {
          "internalType": "uint256",
          "name": "turnCount",
          "type": "uint256"
        }
      ],
      "stateMutability": "view",
      "type": "function"
    },
    {
      "inputs": [
        {
          "internalType": "address",
          "name": "_opponent",
          "type": "address"
        }
      ],
      "name": "challengeBattle",
      "outputs": [],
      "stateMutability": "payable",
      "type": "function"
    },
    {
      "inputs": [
        {
          "internalType": "string",
          "name": "_name",
          "type": "string"
        }
      ],
      "name": "createSamurai",
      "outputs": [],
      "stateMutability": "nonpayable",
      "type": "function"
    },
    {
      "inputs": [
        {
          "internalType": "uint256",
          "name": "_battleId",
          "type": "uint256"
        }
      ],
      "name": "executeTurn",
      "outputs": [],
      "stateMutability": "nonpayable",
      "type": "function"
    },
    {
      "inputs": [],
      "name": "fundContract",
      "outputs": [],
      "stateMutability": "payable",
      "type": "function"
    },
    {
      "inputs": [
        {
          "internalType": "uint256",
          "name": "_battleId",
          "type": "uint256"
        }
      ],
      "name": "getBattle",
      "outputs": [
        {
          "components": [
            {
              "internalType": "address",
              "name": "challenger",
              "type": "address"
            },
            {
              "internalType": "address",
              "name": "opponent",
              "type": "address"
            },
            {
              "internalType": "uint256",
              "name": "bet",
              "type": "uint256"
            },
            {
              "internalType": "uint256",
              "name": "challengerHealth",
              "type": "uint256"
            },
            {
              "internalType": "uint256",
              "name": "opponentHealth",
              "type": "uint256"
            },
            {
              "internalType": "bool",
              "name": "isActive",
              "type": "bool"
            },
            {
              "internalType": "bool",
              "name": "isAccepted",
              "type": "bool"
            },
            {
              "internalType": "address",
              "name": "currentTurn",
              "type": "address"
            },
            {
              "internalType": "uint256",
              "name": "turnCount",
              "type": "uint256"
            }
          ],
          "internalType": "struct RoninRivals.Battle",
          "name": "",
          "type": "tuple"
        }
      ],
      "stateMutability": "view",
      "type": "function"
    },
    {
      "inputs": [],
      "name": "getOwner",
      "outputs": [
        {
          "internalType": "address",
          "name": "",
          "type": "address"
        }
      ],
      "stateMutability": "view",
      "type": "function"
    },
    {
      "inputs": [
        {
          "internalType": "address",
          "name": "_player",
          "type": "address"
        }
      ],
      "name": "getSamurai",
      "outputs": [
        {
          "components": [
            {
              "internalType": "string",
              "name": "name",
              "type": "string"
            },
            {
              "internalType": "uint256",
              "name": "level",
              "type": "uint256"
            },
            {
              "internalType": "uint256",
              "name": "experience",
              "type": "uint256"
            },
            {
              "internalType": "uint256",
              "name": "skillPoints",
              "type": "uint256"
            },
            {
              "internalType": "uint256",
              "name": "strength",
              "type": "uint256"
            },
            {
              "internalType": "uint256",
              "name": "defense",
              "type": "uint256"
            },
            {
              "internalType": "uint256",
              "name": "speed",
              "type": "uint256"
            },
            {
              "internalType": "uint256",
              "name": "health",
              "type": "uint256"
            },
            {
              "internalType": "uint256",
              "name": "battlesWon",
              "type": "uint256"
            },
            {
              "internalType": "uint256",
              "name": "battlesLost",
              "type": "uint256"
            },
            {
              "internalType": "bool",
              "name": "exists",
              "type": "bool"
            }
          ],
          "internalType": "struct RoninRivals.Samurai",
          "name": "",
          "type": "tuple"
        }
      ],
      "stateMutability": "view",
      "type": "function"
    },
    {
      "inputs": [
        {
          "internalType": "address",
          "name": "",
          "type": "address"
        }
      ],
      "name": "samurais",
      "outputs": [
        {
          "internalType": "string",
          "name": "name",
          "type": "string"
        },
        {
          "internalType": "uint256",
          "name": "level",
          "type": "uint256"
        },
        {
          "internalType": "uint256",
          "name": "experience",
          "type": "uint256"
        },
        {
          "internalType": "uint256",
          "name": "skillPoints",
          "type": "uint256"
        },
        {
          "internalType": "uint256",
          "name": "strength",
          "type": "uint256"
        },
        {
          "internalType": "uint256",
          "name": "defense",
          "type": "uint256"
        },
        {
          "internalType": "uint256",
          "name": "speed",
          "type": "uint256"
        },
        {
          "internalType": "uint256",
          "name": "health",
          "type": "uint256"
        },
        {
          "internalType": "uint256",
          "name": "battlesWon",
          "type": "uint256"
        },
        {
          "internalType": "uint256",
          "name": "battlesLost",
          "type": "uint256"
        },
        {
          "internalType": "bool",
          "name": "exists",
          "type": "bool"
        }
      ],
      "stateMutability": "view",
      "type": "function"
    },
    {
      "inputs": [
        {
          "internalType": "uint8",
          "name": "_stat",
          "type": "uint8"
        }
      ],
      "name": "upgradeStat",
      "outputs": [],
      "stateMutability": "nonpayable",
      "type": "function"
    },
    {
      "inputs": [],
      "name": "withdraw",
      "outputs": [],
      "stateMutability": "nonpayable",
      "type": "function"
    },
    {
      "stateMutability": "payable",
      "type": "receive"
    }
  ],
  "bytecode": "0x6080604052600380546001600160a01b03191633179055611f8f806100235f395ff3fe6080604052600436106100fd575f3560e01c80637b1b064611610092578063935aae4011610062578063935aae401461041d578063a13eb44d14610437578063a23ec81d14610456578063bd097e2114610475578063fe3edcd11461047d575f5ffd5b80637b1b0646146103b45780637c7036c1146103c857806381ec30f2146103e3578063893d20e8146103f6575f5ffd5b80634fcceee3116100cd5780634fcceee31461019c57806357e333d2146101bb578063606d2e96146101dd5780636dd0ce7a146102b1575f5ffd5b806308e4f9f71461010857806338ca43d0146101475780633ccfd60b146101735780634b09c48214610189575f5ffd5b3661010457005b5f5ffd5b348015610113575f5ffd5b506101276101223660046119fb565b610492565b60405161013e9b9a99989796959493929190611a56565b60405180910390f35b348015610152575f5ffd5b506101666101613660046119fb565b610571565b60405161013e9190611aba565b34801561017e575f5ffd5b506101876106eb565b005b6101876101973660046119fb565b61079e565b3480156101a7575f5ffd5b506101876101b6366004611b55565b610b3e565b3480156101c6575f5ffd5b506101cf600381565b60405190815260200161013e565b3480156101e8575f5ffd5b5061025a6101f7366004611b55565b600160208190525f918252604090912080549181015460028201546003830154600484015460058501546006909501546001600160a01b03968716969485169593949293919260ff80841693610100810490911692620100009091049091169089565b604080516001600160a01b039a8b168152988a1660208a015288019690965260608701949094526080860192909252151560a0850152151560c084015290921660e08201526101008101919091526101200161013e565b3480156102bc575f5ffd5b506103a76102cb366004611b55565b60408051610120810182525f80825260208201819052918101829052606081018290526080810182905260a0810182905260c0810182905260e08101829052610100810191909152505f9081526001602081815260409283902083516101208101855281546001600160a01b039081168252938201548416928101929092526002810154938201939093526003830154606082015260048301546080820152600583015460ff808216151560a0840152610100808304909116151560c08401526201000090910490921660e08201526006909201549082015290565b60405161013e9190611b6c565b3480156103bf575f5ffd5b506101cf606481565b3480156103d3575f5ffd5b506101cf670de0b6b3a764000081565b6101876103f1366004611b55565b610e59565b348015610401575f5ffd5b506003546040516001600160a01b03909116815260200161013e565b348015610428575f5ffd5b506101cf662386f26fc1000081565b348015610442575f5ffd5b50610187610451366004611bfe565b61100f565b348015610461575f5ffd5b50610187610470366004611c32565b6112d0565b610187611499565b348015610488575f5ffd5b506101cf60025481565b5f602081905290815260409020805481906104ac90611ce5565b80601f01602080910402602001604051908101604052809291908181526020018280546104d890611ce5565b80156105235780601f106104fa57610100808354040283529160200191610523565b820191905f5260205f20905b81548152906001019060200180831161050657829003601f168201915b50505060018401546002850154600386015460048701546005880154600689015460078a015460088b015460098c0154600a909c01549a9b979a969950949750929591949093919060ff168b565b6105c6604051806101600160405280606081526020015f81526020015f81526020015f81526020015f81526020015f81526020015f81526020015f81526020015f81526020015f81526020015f151581525090565b6001600160a01b0382165f9081526020819052604090819020815161016081019092528054829082906105f890611ce5565b80601f016020809104026020016040519081016040528092919081815260200182805461062490611ce5565b801561066f5780601f106106465761010080835404028352916020019161066f565b820191905f5260205f20905b81548152906001019060200180831161065257829003601f168201915b505050918352505060018201546020820152600282015460408201526003820154606082015260048201546080820152600582015460a0820152600682015460c0820152600782015460e082015260088201546101008201526009820154610120820152600a9091015460ff1615156101409091015292915050565b6003546001600160a01b0316331461071e5760405162461bcd60e51b815260040161071590611d1d565b60405180910390fd5b47806107635760405162461bcd60e51b81526020600482015260146024820152734e6f2066756e647320746f20776974686472617760601b6044820152606401610715565b6003546040516001600160a01b039091169082156108fc029083905f818181858888f1935050505015801561079a573d5f5f3e3d5ffd5b5050565b335f908152602081905260409020600a015460ff166107ff5760405162461bcd60e51b815260206004820152601f60248201527f596f75206d7573742063726561746520612053616d75726169206669727374006044820152606401610715565b336001600160a01b038216036108575760405162461bcd60e51b815260206004820152601960248201527f43616e6e6f74206368616c6c656e676520796f757273656c66000000000000006044820152606401610715565b6001600160a01b0381165f908152602081905260409020600a015460ff166108c15760405162461bcd60e51b815260206004820152601c60248201527f4f70706f6e656e74206d757374206861766520612053616d75726169000000006044820152606401610715565b662386f26fc1000034101580156108e05750670de0b6b3a76400003411155b6109215760405162461bcd60e51b8152602060048201526012602482015271125b9d985b1a590818995d08185b5bdd5b9d60721b6044820152606401610715565b600280545f918261093183611d76565b919050559050604051806101200160405280336001600160a01b03168152602001836001600160a01b031681526020013481526020015f5f336001600160a01b03166001600160a01b031681526020019081526020015f206007015481526020015f5f856001600160a01b03166001600160a01b031681526020019081526020015f206007015481526020015f151581526020015f15158152602001336001600160a01b031681526020015f81525060015f8381526020019081526020015f205f820151815f015f6101000a8154816001600160a01b0302191690836001600160a01b031602179055506020820151816001015f6101000a8154816001600160a01b0302191690836001600160a01b0316021790555060408201518160020155606082015181600301556080820151816004015560a0820151816005015f6101000a81548160ff02191690831515021790555060c08201518160050160016101000a81548160ff02191690831515021790555060e08201518160050160026101000a8154816001600160a01b0302191690836001600160a01b031602179055506101008201518160060155905050807ffafd3c1c9d8b11b5213a4b16b484afe1cbf94b34cd7ebe38ca870f9785311451338434604051610b32939291906001600160a01b039384168152919092166020820152604081019190915260600190565b60405180910390a25050565b5f818152600160205260409020600581015460ff16610b965760405162461bcd60e51b8152602060048201526014602482015273426174746c65206973206e6f742061637469766560601b6044820152606401610715565b6005810154610100900460ff16610bef5760405162461bcd60e51b815260206004820152601d60248201527f426174746c65206d7573742062652061636365707465642066697273740000006044820152606401610715565b60058101546201000090046001600160a01b03163314610c415760405162461bcd60e51b815260206004820152600d60248201526c2737ba103cb7bab9103a3ab93760991b6044820152606401610715565b805433905f906001600160a01b03168214610c665782546001600160a01b0316610c75565b60018301546001600160a01b03165b90505f5f610c838484611549565b865491935091506001600160a01b0390811690851603610cc85781856004015411610cae575f610cbe565b818560040154610cbe9190611d8e565b6004860155610cef565b81856003015411610cd9575f610ce9565b818560030154610ce99190611d8e565b60038601555b600685018054905f610d0083611d76565b9091555050845486907f32f21e78f1b9253d6b5647e7be62d64cdae398bb6b05c2767207f35a79f76ce090869085906001600160a01b03808416911614610d4b578860030154610d51565b88600401545b604080516001600160a01b03909416845260208401929092529082015260600160405180910390a28015610dc457604080516001600160a01b03861681526020810184905287917f4ae65b942085337b71cfe10a665e332575fbb05aaf0bf11ca8026bd3f4bbfafb910160405180910390a25b60038501541580610dd757506004850154155b15610dea57610de586611745565b610e51565b845460058601546201000090046001600160a01b03908116911614610e195784546001600160a01b0316610e28565b60018501546001600160a01b03165b8560050160026101000a8154816001600160a01b0302191690836001600160a01b031602179055505b505050505050565b5f818152600160208190526040909120908101546001600160a01b03163314610ed25760405162461bcd60e51b815260206004820152602560248201527f4f6e6c7920746865206368616c6c656e67656420706c617965722063616e206160448201526418d8d95c1d60da1b6064820152608401610715565b6005810154610100900460ff1615610f2c5760405162461bcd60e51b815260206004820152601760248201527f426174746c6520616c72656164792061636365707465640000000000000000006044820152606401610715565b600581015460ff1615610f795760405162461bcd60e51b8152602060048201526015602482015274426174746c6520616c72656164792061637469766560581b6044820152606401610715565b80600201543414610fcc5760405162461bcd60e51b815260206004820152601c60248201527f4d75737420706179207468652073616d652062657420616d6f756e74000000006044820152606401610715565b60058101805461ffff191661010117905560405133815282907ff5c5db4feb68a0523cc61520eb49aeb8f25cbc8b70920abaa300c1562add900090602001610b32565b335f908152602081905260409020600a015460ff166110705760405162461bcd60e51b815260206004820152601f60248201527f596f75206d7573742063726561746520612053616d75726169206669727374006044820152606401610715565b335f90815260208190526040902060038101546110cf5760405162461bcd60e51b815260206004820152601960248201527f4e6f20736b696c6c20706f696e747320617661696c61626c65000000000000006044820152606401610715565b60048260ff16106111115760405162461bcd60e51b815260206004820152600c60248201526b125b9d985b1a59081cdd185d60a21b6044820152606401610715565b600381018054905f61112283611da7565b91905055508160ff165f03611192576002816004015f8282546111459190611dbc565b9091555050600481015460405133915f516020611f3a5f395f51905f5291610b3291906040808252600890820152670e6e8e4cadccee8d60c31b6060820152602081019190915260800190565b8160ff166001036111fd576001816005015f8282546111b19190611dbc565b9091555050600581015460405133915f516020611f3a5f395f51905f5291610b329190604080825260079082015266646566656e736560c81b6060820152602081019190915260800190565b8160ff16600203611266576001816006015f82825461121c9190611dbc565b9091555050600681015460405133915f516020611f3a5f395f51905f5291610b3291906040808252600590820152641cdc19595960da1b6060820152602081019190915260800190565b8160ff1660030361079a57600a816007015f8282546112859190611dbc565b9091555050600781015460405133915f516020611f3a5f395f51905f5291610b3291906040808252600690820152650d0cac2d8e8d60d31b6060820152602081019190915260800190565b335f908152602081905260409020600a015460ff161561132b5760405162461bcd60e51b815260206004820152601660248201527553616d7572616920616c72656164792065786973747360501b6044820152606401610715565b5f8151116113725760405162461bcd60e51b81526020600482015260146024820152734e616d652063616e6e6f7420626520656d70747960601b6044820152606401610715565b6040805161016081018252828152600160208083018290525f83850181905260608401819052600a6080850181905260a0850181905260c0850152601460e08501526101008401819052610120840181905261014084019290925233825281905291909120815181906113e59082611e1b565b50602082015160018201556040808301516002830155606083015160038301556080830151600483015560a0830151600583015560c0830151600683015560e083015160078301556101008301516008830155610120830151600983015561014090920151600a909101805460ff19169115159190911790555133907f56729a04a7b9fbacffc8b4865b7082c4bce0e09aaccb84a25c126f3b397441139061148e908490611ed6565b60405180910390a250565b6003546001600160a01b031633146114c35760405162461bcd60e51b815260040161071590611d1d565b5f34116115125760405162461bcd60e51b815260206004820152601b60248201527f4d7573742073656e642066756e647320746f20636f6e747261637400000000006044820152606401610715565b60405134815233907f0939f6f4877faf071412e527bc4c6d0bd65ad077e52b57334f7765265647a7f19060200160405180910390a2565b6001600160a01b038083165f9081526020819052604080822092841682528120600581015491928392909190839061158390600290611efc565b8360040154116115945760016115b4565b600282600501546115a59190611efc565b83600401546115b49190611d8e565b90506064601542896040516020016115e392919091825260601b6001600160601b031916602082015260340190565b604051602081830303815290604052805190602001205f1c6116059190611f0f565b61160f9083611f22565b6116199190611efc565b6116239082611dbc565b90505f836006015460026116379190611f22565b6064428a60405160200161167392919091825260601b6001600160601b03191660208201526718dc9a5d1a58d85b60c21b6034820152603c0190565b604051602081830303815290604052805190602001205f1c6116959190611f0f565b10905080156117385760646033428a6040516020016116de92919091825260601b6001600160601b031916602082015269637269745f626f6e757360b01b6034820152603e0190565b604051602081830303815290604052805190602001205f1c6117009190611f0f565b61170a9084611f22565b6117149190611efc565b6064611721846096611f22565b61172b9190611efc565b6117359190611dbc565b91505b9097909650945050505050565b5f81815260016020526040812060038101549091906117715760018201546001600160a01b031661177d565b81546001600160a01b03165b82549091505f906001600160a01b038084169116146117a65782546001600160a01b03166117b5565b60018301546001600160a01b03165b6001600160a01b0383165f9081526020819052604081206008018054929350906117de83611d76565b90915550506001600160a01b0381165f90815260208190526040812060090180549161180983611d76565b919050555061181982603261195a565b61182481600a61195a565b5f836002015460026118369190611f22565b9050478181106118c6576040516001600160a01b0385169083156108fc029084905f818181858888f19350505050158015611873573d5f5f3e3d5ffd5b50604080516001600160a01b0380871682528516602082015290810183905286907f321fabd726c0c287fb5179fb76fd24c972f92727701c3b9fec3ec65c6f587ea29060600160405180910390a2611948565b6040516001600160a01b0385169082156108fc029083905f818181858888f193505050501580156118f9573d5f5f3e3d5ffd5b50604080516001600160a01b0380871682528516602082015290810182905286907f321fabd726c0c287fb5179fb76fd24c972f92727701c3b9fec3ec65c6f587ea29060600160405180910390a25b50505050600501805460ff1916905550565b6001600160a01b0382165f90815260208190526040812060028101805491928492611986908490611dbc565b909155505060018101545f9061199e90606490611f22565b9050808260020154106119f557600182018054905f6119bc83611d76565b91905055506003826003015f8282546119d59190611dbc565b9250508190555080826002015f8282546119ef9190611d8e565b90915550505b50505050565b5f60208284031215611a0b575f5ffd5b81356001600160a01b0381168114611a21575f5ffd5b9392505050565b5f81518084528060208401602086015e5f602082860101526020601f19601f83011685010191505092915050565b61016081525f611a6a61016083018e611a28565b602083019c909c525060408101999099526060890197909752608088019590955260a087019390935260c086019190915260e0850152610100840152610120830152151561014090910152919050565b602081525f82516101606020840152611ad7610180840182611a28565b9050602084015160408401526040840151606084015260608401516080840152608084015160a084015260a084015160c084015260c084015160e084015260e0840151610100840152610100840151610120840152610120840151610140840152610140840151611b4d61016085018215159052565b509392505050565b5f60208284031215611b65575f5ffd5b5035919050565b81516001600160a01b0390811682526020808401519091169082015260408083015190820152606080830151908201526080808301519082015260a082810151610120830191611bbf9084018215159052565b5060c0830151611bd360c084018215159052565b5060e0830151611bee60e08401826001600160a01b03169052565b5061010092830151919092015290565b5f60208284031215611c0e575f5ffd5b813560ff81168114611a21575f5ffd5b634e487b7160e01b5f52604160045260245ffd5b5f60208284031215611c42575f5ffd5b813567ffffffffffffffff811115611c58575f5ffd5b8201601f81018413611c68575f5ffd5b803567ffffffffffffffff811115611c8257611c82611c1e565b604051601f8201601f19908116603f0116810167ffffffffffffffff81118282101715611cb157611cb1611c1e565b604052818152828201602001861015611cc8575f5ffd5b816020840160208301375f91810160200191909152949350505050565b600181811c90821680611cf957607f821691505b602082108103611d1757634e487b7160e01b5f52602260045260245ffd5b50919050565b60208082526025908201527f4f6e6c7920746865206f776e65722063616e2063616c6c20746869732066756e60408201526431ba34b7b760d91b606082015260800190565b634e487b7160e01b5f52601160045260245ffd5b5f60018201611d8757611d87611d62565b5060010190565b81810381811115611da157611da1611d62565b92915050565b5f81611db557611db5611d62565b505f190190565b80820180821115611da157611da1611d62565b601f821115611e1657805f5260205f20601f840160051c81016020851015611df45750805b601f840160051c820191505b81811015611e13575f8155600101611e00565b50505b505050565b815167ffffffffffffffff811115611e3557611e35611c1e565b611e4981611e438454611ce5565b84611dcf565b6020601f821160018114611e7b575f8315611e645750848201515b5f19600385901b1c1916600184901b178455611e13565b5f84815260208120601f198516915b82811015611eaa5787850151825560209485019460019092019101611e8a565b5084821015611ec757868401515f19600387901b60f8161c191681555b50505050600190811b01905550565b602081525f611a216020830184611a28565b634e487b7160e01b5f52601260045260245ffd5b5f82611f0a57611f0a611ee8565b500490565b5f82611f1d57611f1d611ee8565b500690565b8082028115828204841417611da157611da1611d6256fe4e165d0b27d636a96a4a5ff5e73ac46b70b11f97afc47b9a079374fa40576a08a264697066735822122014bdaff85439fc55eeb77d9cde3921ff8b5461455f11341cf499fda7a554b19564736f6c634300081c0033",
  "linkReferences": {},
  "deployedLinkReferences": {},
  "immutableReferences": {},
  "inputSourceName": "project/contracts/RoninRivals.sol",
  "buildInfoId": "504a825b37e68ee4912e965414ed634b955917aa"
}